S011000043414E7265616465722E73726563CE
S11300000C943B000C9458000C9458000C94580029
S11300100C9458000C9458000C9458000C945800FC
S11300200C9458000C9458000C9458000C945800EC
S11300300C9458000C9458000C9458000C945800DC
S11300400C9458000C9458000C9458000C945800CC
S11300500C9458000C9458000C9458000C945800BC
S11300600C9458000C945800E601B201BB01C50180
S1130070CF01D801DD0111241FBECFEFD8E0DEBFD0
S1130080CDBF11E0A0E0B1E0E4EDFDE002C00590D9
S11300900D92AA30B107D9F721E0AAE0B1E001C07E
S11300A01D92A731B207E1F70E94C4020C94E8063E
S11300B00C9400008EBD0DB407FEFDCF8EB50895DF
S11300C0CF93C82F2A9883E00E945A008C2F0E9455
S11300D05A008FEF0E945A002A9ACF910895CF9325
S11300E0DF93D82FC62F289882E00E945A008D2FC4
S11300F00E945A008C2F0E945A002A9ADF91CF91B5
S11301000895CF92DF92EF92FF926B017C0184B14C
S11301108C6284B9249885B1877C85B92A9A81E553
S11301208CBD1DBC2A9880EC0E945A002A9A87EC48
S113013090E00197F1F700C000002A9882E00E9445
S11301405A0088E20E945A0082E00E945A0080E924
S11301500E945A008C2D0E945A0083E00E945A008B
S11301602A9A8AE20E94600090E0A0E0B0E08C1538
S11301709D05AE05BF05B1F460E08CE00E946F0000
S113018060E08DE00E946F0060E680E60E946F00F0
S113019060E680E70E946F0060E08FE00E946F00DD
S11301A081E001C080E0FF90EF90DF90CF90089550
S11301B040E068E280E490E00E94F20385E00E945F
S11301C069040895AF92BF92CF92DF92EF92FF92AB
S11301D00F931F93CF93DF93C82F4C30510529F011
S11301E04D30510509F49DC0C2C1262F372F21344B
S11301F08FE1380710F020E43FE1283795E0390714
S1130200A0F4369527953695279536952795A3E935
S1130210B4E20E949805B82E0F2EFDEDCF2EF4E423
S1130220DF2EED2CF12CF02DEFC0203FEAE03E074D
S1130230B0F4285735403695279536952795369549
S11302402795A3E9B4E20E949805B82E0F2ECC247A
S1130250CA94FEEEDF2EE12CF12CF02DD5C0283609
S1130260F0E13F07B8F4205F3A403695279536957C
S1130270279536952795A3E9B4E20E949805B82EF0
S11302800F2EF5E2CF2EF0EDDF2EF9E6EF2EF12C56
S1130290F02DBAC0203E85E13807B8F42856304125
S11302A0369527953695279536952795A3E9B4E293
S11302B00E949805B82E0F2EF3E3CF2EFBEBDF2E12
S11302C0FCECEF2EF12CF02D9FC028359BE1390773
S11302D0B0F4205E354136952795369527953695A9
S11302E02795A3E9B4E20E949805B82E0F2EC12CDD
S11302F0F9E9DF2EEE24EA94F12CF02D85C028557F
S11303003B41369527953695279536952795A3E94C
S1130310B4E20E949805B82EC12CD12C7601EA943F
S113032073C0462F572F483A510510F047EA50E062
S11303309A01ABEABAEA0E949805929582958F7069
S113034089279F7089278730910530F49C012C5CA4
S11303503F4FF9010C949205CC24CA94DC2CEC2C6C
S1130360F12C3CC00F2ECC24CA94FEEEDF2EE12CDF
S1130370F12CF02D33C00F2EF5E2CF2EF0EDDF2E51
S1130380F9E6EF2EF12CF02D29C00F2EF3E3CF2E3A
S1130390FBEBDF2EFCECEF2EF12CF02D1FC00F2E0B
S11303A0C12CF9E9DF2EEE24EA94F12CF02D16C0CD
S11303B0C12CD12C7601EA9411C00F2EF9E9CF2E6D
S11303C0DC2CEE24EA94F12CF02D08C00F2EFDED68
S11303D0CF2EF4E4DF2EED2CF12CF02D9A01ABEAB4
S11303E0BAEA0E949805929582958F7089279F702A
S11303F08927BC01660F771F9B01280F391FB42E74
S1130400F8E02F9FB0181124AC2EAA0CAA0CEC2FE4
S1130410EA0D0F2EF8E3AF2EF02DAE0E0BEAB09ED0
S1130420012D1124069529F4CA2DD0E0E89717E090
S11304301BC0CA2DD0E010E0B701A601CE010E9476
S11304402203B701A601CE0101960E942203B7013F
S1130450A601CE0102960E9422031F5F2897101363
S1130460EBCF073008F318C040E050E0BA01CE01EA
S11304700E94220340E050E0BA01CE0101960E949E
S1130480220340E050E0BA01CE0102960E9422030A
S113049011502896011740F38BEAB89E812D112440
S11304A08695982F990F890F9B2D981B913069F58C
S11304B00A2D10E08B2D90E0019763E070E00E941C
S11304C05C05CC27DD27C61BD70BCC0FDD1FCC0F5B
S11304D0DD1FCC0FDD1F40E050E0BA01C8018C0FD6
S11304E09D1F0E942203C801019640E050E0BA011A
S11304F08C0F9D1F0E942203C8010296B701A6011A
S11305008C0F9D1F0E9422032DC0923059F50A2D95
S113051010E08B2D90E0029763E070E00E945C0590
S1130520CC27DD27C61BD70BCC0FDD1FCC0FDD1F5F
S1130530CC0FDD1F40E050E0BA01C8018C0F9D1FB5
S11305400E942203C8010196B701A6018C0F9D1FCA
S11305500E942203C8010296B701A6018C0F9D1FB9
S11305600E9422030E948C0381E090E002C080E09C
S113057090E0DF91CF911F910F91FF90EF90DF906A
S1130580CF90BF90AF90089561E070E080E090E07C
S11305900E9481008823C1F38FE39CE90197F1F75E
S11305A000C000000E94D8009FEF29E688E1915026
S11305B020408040E1F700C00000C0E0D0E004EF3C
S11305C011E00F2EF4EFCF2EF02DDD24D394E12C87
S11305D0F12C0C5E1F4F4CE050E0B80180E00E940B
S11305E0E20021964DE050E0BE0181E00E94E2006D
S11305F001329CE1190710F00C2D1D2DC338D105D3
S113060010F0CE2DDF2D9FEF21EE84E0915020409D
S11306108040E1F700C00000DCCFE82FF0E0DF010C
S11306202E9181E090E0AC0102C0440F551F6A9501
S1130630E2F7BA01822F842B8C9380816095682322
S113064060830895CF92DF92EF92FF920F931F93EE
S1130650CF9320910C0130910D018217930708F07C
S113066053C08B0122273327B02FC52ED62EE72E59
S1130670FF24AC2DC42FE0910601EF3FB9F1E091C6
S11306800601E23070F1E0910601F0E03196CC2DE4
S1130690C160CE9FD001CF9FB00D1124A138B10508
S11306A020F0A058B109AB2F01C0A0E001600E9F5B
S11306B090010F9F300D11242138310520F020586E
S11306C03109B32F01C0B0E041604E9F90014F9FAC
S11306D0300D11242138310540F020583109C32F41
S11306E005C0C0E0A0E0B0E001C0C0E0FC01EE0F36
S11306F0FF1F8E0F9F1FE0911001F0911101E80F71
S1130700F91FA083B183C283CF911F910F91FF90F2
S1130710EF90DF90CF900895CF93DF93CDB7DEB7FE
S113072027970FB6F894DEBF0FBECDBF87EC90E0DD
S11307300197F1F700C00000F89480910A019091AC
S11307400B019A838983E0911001F0911101DF017B
S1130750119680818B83E0910E01F0910F019081BD
S113076080911201892B8E83908180911201809552
S113077089238F838F818C8388E08D835E816F8151
S11307804B813D812C8189819A81508347FD252F9E
S11307902083262F3A9539F0440F00C0000060836F
S11307A000C00000F2CF4D91608338E00000019753
S11307B061F7F0930F01E0930E014B833D832C838B
S11307C09A838983789487EC90E00197F1F700C0CD
S11307D0000027960FB6F894DEBF0FBECDBFDF91A1
S11307E0CF910895FF920F931F93CF93DF931F929E
S11307F0CDB7DEB78C016983F42E8981642F0E9402
S11308000D03898190E090930F0180930E0181E0A4
S113081090E0AC0102C0440F551FFA94E2F74093F4
S1130820120110930D0100930C0180910701909126
S1130830080190930B0180930A018FEF80930601C6
S113084080910A0190910B010E94BA0590931101C5
S113085080931001009741F040910A0150910B01DF
S113086060E070E00E94E1060E948C038091100118
S1130870909111010E9452062FEF80E792E02150DF
S113088080409040E1F700C00000C801880F991F24
S1130890080F191F10930B0100930A0180910A019C
S11308A090910B010E94BA0590931101809310015D
S11308B0009741F040910A0150910B0160E070E013
S11308C00E94E1060F90DF91CF911F910F91FF904D
S11308D008954F925F926F927F928F929F92AF9200
S11308E0BF92DF92EF92FF920F931F93CF93DF9308
S11308F0D82E80910601D81609F4BAC0309110019F
S11309002091110180900601912C8FEF881A980A8A
S1130910D11037C080910A0190910B01892B09F401
S1130920A5C0C32FD22FE32EF22E00E010E0A12C9D
S1130930B12CF70181917F018823B9F0698170E0BE
S11309406F5F7F4FCB01AA2797FDA095BA2F77271A
S11309506627A50194010E947005BA01A9014058B7
S1130960510961097109588301C018820F5F1F4F33
S113097080910A0190910B01219608171907C8F27A
S113098075C0FFEFDF1639F080910A0190910B01D9
S1130990892BC1F56BC080910A0190910B01892BC1
S11309A009F464C0C32FD22FE32EF22E00E010E02E
S11309B0A12CB12CF70181917F018823B9F06981C1
S11309C070E06F5F7F4FCB01AA2797FDA095BA2FE8
S11309D077276627A50194010E947005DA01C901F1
S11309E080589109A109B109988301C018820F5F49
S11309F01F4F80910A0190910B0121960817190746
S1130A00C8F234C04D2C512CFFEF4F1A5F0A542CFE
S1130A104424612C712CC32FD22FE32EF22E00E03C
S1130A2010E0A12CB12CF70181917F01882399F06A
S1130A30A981B0E01196A30192010E94A705A50126
S1130A4094010E947005DA01C90180589109A10935
S1130A50B109988301C018820F5F1F4F80910A016A
S1130A6090910B01219608171907E8F2D09206011C
S1130A70DF91CF911F910F91FF90EF90DF90BF9086
S1130A80AF909F908F907F906F905F904F9008955C
S1130A90AA1BBB1B51E107C0AA1FBB1FA617B707A0
S1130AA010F0A61BB70B881F991F5A95A9F78095BC
S1130AB09095BC01CD01089597FB072E16F4009480
S1130AC007D077FD09D00E94480507FC05D03EF405
S1130AD0909581959F4F0895709561957F4F0895E6
S1130AE0A1E21A2EAA1BBB1BFD010DC0AA1FBB1F2E
S1130AF0EE1FFF1FA217B307E407F50720F0A21BA0
S1130B00B30BE40BF50B661F771F881F991F1A940C
S1130B1069F760957095809590959B01AC01BD0136
S1130B20CF010895EE0FFF1F0590F491E02D099475
S1130B30A29FB001B39FC001A39F700D811D11241A
S1130B40911DB29F700D811D1124911D0895B7FF51
S1130B500C94AF050E94AF05821B930B08950E946D
S1130B609805A59F900DB49F900DA49F800D911D95
S1130B7011240895CF93DF938230910510F482E01D
S1130B8090E0E0911501F091160120E030E0A0E042
S1130B90B0E0309739F14081518148175907B8F0D6
S1130BA04817590771F482819381109729F013969D
S1130BB09C938E9312972CC09093160180931501E9
S1130BC027C02115310531F04217530718F0A90148
S1130BD0DB0101C0EF019A01BD01DF010280F38155
S1130BE0E02DD7CF21153105F9F0281B390B24301E
S1130BF0310580F48A819B816115710521F0FB0127
S1130C009383828304C09093160180931501FE019F
S1130C10329644C0FE01E20FF31F81939193225058
S1130C203109398328833AC020911301309114018A
S1130C30232B41F4209102013091030130931401DC
S1130C4020931301209100013091010121153105F8
S1130C5041F42DB73EB74091040150910501241B86
S1130C60350BE0911301F0911401E217F307A0F49E
S1130C702E1B3F0B2817390778F0AC014E5F5F4FEE
S1130C802417350748F04E0F5F1F5093140140930B
S1130C9013018193919302C0E0E0F0E0CF01DF9172
S1130CA0CF910895CF93DF93009709F487C0FC0197
S1130CB0329713821282C0911501D09116012097A8
S1130CC081F420813181280F391F80911301909183
S1130CD014018217930779F5F0931401E09313013B
S1130CE06DC0DE0120E030E0AE17BF0750F412966D
S1130CF04D915C9113979D014115510509F1DA015C
S1130D00F3CFB383A28340815181840F951F8A1747
S1130D109B0771F48D919C911197840F951F0296F6
S1130D209183808312968D919C91139793838283F0
S1130D302115310529F4F0931601E09315013EC005
S1130D40D9011396FC93EE9312974D915D91A40FE4
S1130D50B51FEA17FB0779F480819181840F951FF1
S1130D600296D90111969C938E9382819381139656
S1130D709C938E931297E0E0F0E08A819B81009728
S1130D8019F0FE01EC01F9CFCE01029628813981D8
S1130D90820F931F209113013091140128173907F2
S1130DA069F4309729F4109216011092150102C0CB
S1130DB013821282D0931401C0931301DF91CF9157
S1130DC00895DC0101C06D9341505040E0F708954F
S1070DD0F894FFCFC1
S10D0DD4000017012000FFC000001A
S9030000FC
